:020000040800F2
:10000000900600205D0100086501000867010008F6
:10001000690100086B0100086D0100080000000084
:100020000000000000000000000000006F01000858
:10003000710100080000000073010008750100084C
:100040007701000877010008770100080000000030
:100050000000000077010008770100086D08000823
:100060007701000800000000770100087701000810
:100070007701000800000000770100087701000800
:1000800077010008770100080000000077010008F0
:1000900077010008000000000000000000000000E0
:1000A00000000000000000000000000077010008D0
:1000B0007701000877010008770100087701000840
:1000C00000F002F800F03AF80AA090E8000C824430
:1000D0008344AAF10107DA4501D100F02FF8AFF20D
:1000E000090EBAE80F0013F0010F18BFFB1A43F016
:1000F00001031847300A0000500A0000103A24BFDC
:1001000078C878C1FAD8520724BF30C830C144BF7C
:1001100004680C60704700000023002400250026BE
:10012000103A28BF78C1FBD8520728BF30C148BF5A
:100130000B6070471FB51FBD10B510BD00F031F842
:100140001146FFF7F7FF00F053FC00F04FF803B43F
:10015000FFF7F2FF03BC00F057F8000009488047A2
:1001600009480047FEE7FEE7FEE7FEE7FEE7FEE799
:10017000FEE7FEE7FEE7FEE704480549054A064BB1
:10018000704700002D080008C10000089000002002
:1001900090060020900200209002002070477047D7
:1001A0007047754600F02CF8AE4605006946534688
:1001B00020F00700854618B020B5FFF7DDFFBDE849
:1001C00020404FF000064FF000074FF000084FF0BE
:1001D000000B21F00701AC46ACE8C009ACE8C0094F
:1001E000ACE8C009ACE8C0098D46704710B50446BC
:1001F000AFF300802046BDE81040FFF7A8BF000025
:10020000004870472C00002001491820ABBEFEE7D3
:1002100026000200704700002DE9FE4F4768D0F825
:1002200008C0D0F80C80D0F81090D0F814A0CDF809
:1002300008A0D0F818A0CDF804A0D0F81CA0CDF8E4
:1002400000A00022012303254FF001160C885FE077
:1002500004F0010ABAF1000F55D027EA030A91F819
:1002600002B00BFA02FB4AEA0B0791F808A04FEA2A
:10027000420B0AFA0BFA2CEA050B4AEA0B0C28EAA5
:10028000030A91F80AB00BFA02FB4AEA0B0829EAC2
:10029000060A91F803B002F1100E0BFA0EFB4AEABF
:1002A0000B0A91F804B00BFA02FB4AEA0B09DDF8DD
:1002B00008A02AEA060A91F805B00BFA0EFB4AEAF2
:1002C0000B0A91F806B00BFA02FB4AEA0B0ACDF8CA
:1002D00008A091F809A04FEA420B0AFA0BFADDF8E0
:1002E00004B02BEA050B4AEA0B0ACDF804A0DDF8AE
:1002F00000A02AEA030A91F807B00BFA02FB4AEAC7
:100300000B0ACDF800A05B00AD007600521C64081B
:10031000002C9DD1DFF8C4A0504502D14FF01F0A38
:1003200001E04FF0000A27EA0A0AC0F804A0DFF84B
:10033000ACA0504502D14FF01F0A01E04FF0000A77
:100340002CEA0A0AC0F808A0DFF890A0504502D1B4
:100350004FF01F0A01E04FF0000A28EA0A0AC0F82D
:100360000CA0DFF878A0504502D14FF01F0A01E041
:100370004FF0000A29EA0A0AC0F810A0DFF85CA0D2
:10038000504502D14FF01F0B01E04FF0000BDDF89C
:1003900008A02AEA0B0AC0F814A0DFF840A05045D4
:1003A00002D14FF01F0B01E04FF0000BDDF804A06D
:1003B0002AEA0B0AC0F818A0DFF820A0504502D1A5
:1003C0004FF01F0B01E04FF0000BDDF800A02AEA10
:1003D0000B0AC0F81CA0BDE8FE8F000000000C4016
:1003E00001490860704700008800404210B502468D
:1003F0000C4BD86820F003001043D860586820F4F4
:10040000706040EA01205860074B1B6843B101232C
:10041000054C241D23600023034C883CC4F88C3019
:1004200010BD000000000240880040420149086001
:1004300070470000880140420146044AD06820F01D
:10044000F00040EA0110D060704700000000024058
:100450000146034AD06820F440700843D0607047DA
:10046000000002402DE9FC4F0146DFF864B2DBF8E2
:100470000CB00BF0020BBBF1000F01D0954B00E06C
:10048000944BDFF84CB2DBF80CB00BF0010BBBF176
:10049000000F00D05B081C46DFF834B2DBF80CB06C
:1004A0000BF0040BBBF1000F0DD0DFF824B2DBF82A
:1004B00004B0CBF3032B0BF1010BCDF800B0DDF84A
:1004C00000B004FB0BF4DFF808B2DBF80CB0CBF3A0
:1004D000012BBBF1000F06D0BBF1010F08D0BBF11F
:1004E000020F28D122E0DFF8ECB1C1F800B027E01C
:1004F000DFF8DCB1DBF80CB04FF0080E0EEA1B1B86
:10050000BBF1000F01D1A0460DE0DFF8C4B1DBF86C
:100510000CB0CBF3021B0BF1010B4FF0010E0EFAE6
:100520000BFEB4FBFEF8C1F8008009E04FF4004B6D
:10053000C1F800B004E049F6404BC1F800B000BF7C
:1005400000BFDFF88CB1DBF810B00BF0020BBBF191
:10055000000F01D05F4D00E05E4DDFF874B1DBF8B5
:1005600010B00BF0010BBBF1000F00D06D082F464F
:10057000DFF85CB1DBF810B00BF0040BBBF1000F3F
:100580000DD0DFF84CB1DBF804B0CBF3031B0BF15B
:10059000010BCDF800B0DDF800B007FB0BF7B94652
:1005A000DFF82CB1DBF810B00BF0100BBBF1000F33
:1005B00001D04FEA5909C1F80490DFF814B1DBF813
:1005C00018B04FEA1B1000F0080BBBF1000F02D16E
:1005D000DFF800C10BE000F0070B0BF1010B4FF04F
:1005E000010E0EFA0BF0DFF8ECB0BBFBF0FCC1F82B
:1005F0000CC0DFF8DCB0DBF8180000F0080BBBF132
:10060000000F04D1DFF8CCB0CDF804B00DE000F05D
:10061000070B0BF1010B4FF0010E0EFA0BF0DFF898
:10062000B4B0BBFBF0FBCDF804B0DDF804B0C1F80A
:1006300010B0DFF89CB0DBF814B00BF0030BBBF18B
:10064000000F06D0BBF1010F05D0BBF1020F06D1A0
:1006500003E01E4605E02E4603E0264601E03E4646
:1006600000BF00BFDFF868B0DBF814B0CBF3011BAC
:10067000BBF1000F06D0BBF1010F06D0BBF1020F9A
:1006800008D105E04FF4004206E049F6404203E09D
:10069000324601E0624600BF00BFDFF834B0DBF84D
:1006A00014B04FEA1B2000F0080BBBF1000F01D182
:1006B000924609E000F0070B0BF1010B4FF0010E21
:1006C0000EFA0BF0B2FBF0FAC1F808A0BDE8FC8FFF
:1006D0000000024000127A0010B5014601F0E0036C
:1006E000202B02D1074B1A6801E0074BDA6B01F0AF
:1006F0001F040123A34013400BB1012000E00020A0
:1007000010BD00000000024000800D400D498968C6
:1007100021F003010B4A9160012802D002280ED17A
:1007200006E00849896841F00101064A916007E046
:100730000449896841F00301024A916000E000BF6A
:1007400000BF70470000024038B50020009000BF95
:100750002220FFF7C1FF05460098401C009000983A
:10076000B0F5C06F01D2002DF2D02220FFF7B4FF08
:1007700008B1012400E00024204638BD29B1064A12
:10078000D2690243044BDA6104E0034AD26982432E
:10079000014BDA61704700000000024030B5204C88
:1007A000E46804F00204022C01D11E4800E01D4858
:1007B0001B4CE46804F0010404B140080146184CE5
:1007C000E46804F00404042C05D1154C6468C4F3F7
:1007D0000324631C5943124CE468C4F3012424B17C
:1007E000012C06D0022C13D10DE00E4C0E4D2C60C6
:1007F00013E00B4CE468C4F30314641CB1FBF4F283
:10080000094C226009E04FF40044074D2C6004E0DD
:1008100049F64044044D2C6000BF00BF30BD0000CD
:100820000000024000127A000C00002000B50D48C4
:100830000D49C8610846C0680020C8600846406885
:1008400000204860084680680020886008460069EB
:10085000002008610846406900204861FFF79EFFBC
:1008600000BD0000100000080000024010B510217B
:100870000C4800F04BF8012806D11021094800F07F
:1008800035F80120084908602021064800F03EF8AC
:10089000012806D12021034800F028F8012003494F
:1008A000086010BD0080034004000020000000200C
:1008B00002460B4B986A0B4B9A4205D140F0807070
:1008C00020F0FF00084308E0074B9A4205D140F0B2
:1008D000007020F47F4040EA0120014B986270478D
:1008E000000002400000034000800340426C0A43C5
:1008F0004264704721B1026B42F00102026304E0DE
:10090000026B4FF6FE731A40026370470246136C87
:100910000B400BB1012000E0002070471AB1836B3F
:100920000B43836302E0836B8B4383637047000058
:100930002DE9F04F87B004460D4601A8FFF792FD60
:10094000019F2448866A2448844206D106F00701A4
:1009500001208840B7FBF0F708E02048844205D129
:10096000C6F3022101208840B7FBF0F72868800811
:10097000B7FBF0F94FEA991809F03F0AB8000AEB03
:100980008811B0FBF1FB2868ABEB0000C0012968BF
:10099000B0FBF1F006900698022803D9002007B0BA
:1009A000BDE8F08FC4F82480C4F828A0E66AA888BF
:1009B000E988084329890843698908430643E662B0
:1009C000266B4FF680708643A88906432663012074
:1009D000E5E7000000000240000003400080034003
:1009E0000146086880B27047C1F308020260704790
:1009F0000120FFF78BFEFFF7A7FE012817D1042186
:100A00000220FFF7F3FC0120FFF7EAFCFFF79CFE52
:100A100001280AD10820FFF70FFD0120FFF706FD8E
:100A20004FF48070FFF714FD03E000BFFEE700BF46
:100A3000FEE701214807FFF7A1FE00203249C870F8
:100A4000087148718871C8710320087248720120CA
:100A500088728870022008802C48FFF7DDFB002098
:100A600029498870012008802848FFF7D5FB01211B
:100A70008020FFF783FE00212548FFF719FF07209C
:100A8000012181404209920002F1E022C2F80011E6
:100A900000BF4FF4E1301F490860602088800020CB
:100AA000C880088148814FF4407088811848FFF75A
:100AB0003FFF012210211648FFF730FF01222021BD
:100AC0001348FFF72BFF01211148FFF713FF19E02F
:100AD00000BF114800680128FBD100200E490860C2
:100AE0000B48FFF77DFF0D4908700846017808485C
:100AF000FFF77AFF00BF0A4800680128FBD10020F9
:100B000007490860E4E700001000002000800E4064
:100B1000008003401C00002004000020080000208A
:100B200000000020440B000800000020100000001E
:100B3000FC000008540B0008100000208006000094
:100B40001801000800000000000000000000000084
:040B500000127A0015
:040000050800015D91
:00000001FF
